{
  "contractName": "Airline",
  "abi": [
    {
      "inputs": [
        {
          "internalType": "contract Flights",
          "name": "flight",
          "type": "address"
        }
      ],
      "stateMutability": "nonpayable",
      "type": "constructor"
    },
    {
      "anonymous": false,
      "inputs": [
        {
          "indexed": true,
          "internalType": "address",
          "name": "user",
          "type": "address"
        },
        {
          "components": [
            {
              "internalType": "string",
              "name": "number",
              "type": "string"
            },
            {
              "internalType": "string",
              "name": "origin",
              "type": "string"
            },
            {
              "internalType": "string",
              "name": "destination",
              "type": "string"
            },
            {
              "internalType": "uint256",
              "name": "price",
              "type": "uint256"
            }
          ],
          "indexed": false,
          "internalType": "struct Flight",
          "name": "flight",
          "type": "tuple"
        }
      ],
      "name": "FlightBooked",
      "type": "event"
    },
    {
      "anonymous": false,
      "inputs": [
        {
          "indexed": true,
          "internalType": "address",
          "name": "user",
          "type": "address"
        },
        {
          "indexed": false,
          "internalType": "uint256",
          "name": "amount",
          "type": "uint256"
        }
      ],
      "name": "PointsRedeemed",
      "type": "event"
    },
    {
      "inputs": [],
      "name": "amIOwner",
      "outputs": [
        {
          "internalType": "bool",
          "name": "",
          "type": "bool"
        }
      ],
      "stateMutability": "view",
      "type": "function",
      "constant": true
    },
    {
      "inputs": [],
      "name": "changeOwner",
      "outputs": [],
      "stateMutability": "nonpayable",
      "type": "function"
    },
    {
      "inputs": [
        {
          "internalType": "string",
          "name": "flightNumber",
          "type": "string"
        }
      ],
      "name": "bookFlight",
      "outputs": [],
      "stateMutability": "payable",
      "type": "function",
      "payable": true
    },
    {
      "inputs": [],
      "name": "getUser",
      "outputs": [
        {
          "components": [
            {
              "internalType": "uint256",
              "name": "loyalityPoints",
              "type": "uint256"
            },
            {
              "components": [
                {
                  "internalType": "string",
                  "name": "number",
                  "type": "string"
                },
                {
                  "internalType": "string",
                  "name": "origin",
                  "type": "string"
                },
                {
                  "internalType": "string",
                  "name": "destination",
                  "type": "string"
                },
                {
                  "internalType": "uint256",
                  "name": "price",
                  "type": "uint256"
                }
              ],
              "internalType": "struct Flight[]",
              "name": "bookedFlights",
              "type": "tuple[]"
            }
          ],
          "internalType": "struct Airline.User",
          "name": "",
          "type": "tuple"
        }
      ],
      "stateMutability": "view",
      "type": "function",
      "constant": true
    },
    {
      "inputs": [],
      "name": "reclaimPoints",
      "outputs": [],
      "stateMutability": "payable",
      "type": "function",
      "payable": true
    },
    {
      "inputs": [],
      "name": "getBalance",
      "outputs": [
        {
          "internalType": "uint256",
          "name": "",
          "type": "uint256"
        }
      ],
      "stateMutability": "view",
      "type": "function",
      "constant": true
    },
    {
      "inputs": [
        {
          "internalType": "uint256",
          "name": "value",
          "type": "uint256"
        }
      ],
      "name": "getProfit",
      "outputs": [],
      "stateMutability": "payable",
      "type": "function",
      "payable": true
    }
  ],
  "bytecode": "0x608060405266071afd498d00006002553480156200001c57600080fd5b506040516200185a3803806200185a833981810160405281019062000042919062000148565b336000806101000a81548173ffffffffffffffffffffffffffffffffffffffff021916908373ffffffffffffffffffffffffffffffffffffffff16021790555080600360006101000a81548173ffffffffffffffffffffffffffffffffffffffff021916908373ffffffffffffffffffffffffffffffffffffffff160217905550506200017a565b600080fd5b600073ffffffffffffffffffffffffffffffffffffffff82169050919050565b6000620000fc82620000cf565b9050919050565b60006200011082620000ef565b9050919050565b620001228162000103565b81146200012e57600080fd5b50565b600081519050620001428162000117565b92915050565b600060208284031215620001615762000160620000ca565b5b6000620001718482850162000131565b91505092915050565b6116d0806200018a6000396000f3fe6080604052600436106100705760003560e01c80634e4ab8301161004e5780634e4ab830146100c657806362a09477146100f1578063832880e714610108578063a91b2e9f1461013357610070565b80630c555e401461007557806312065fe01461007f57806332861355146100aa575b600080fd5b61007d61014f565b005b34801561008b57600080fd5b506100946103cb565b6040516100a19190610c7a565b60405180910390f35b6100c460048036038101906100bf9190610def565b610461565b005b3480156100d257600080fd5b506100db6106c5565b6040516100e89190610e53565b60405180910390f35b3480156100fd57600080fd5b5061010661075c565b005b34801561011457600080fd5b5061011d61082c565b60405161012a9190611075565b60405180910390f35b61014d600480360381019061014891906110c3565b610aac565b005b6005600160003373ffffffffffffffffffffffffffffffffffffffff1673ffffffffffffffffffffffffffffffffffffffff1681526020019081526020016000206000015410156101d5576040517f08c379a00000000000000000000000000000000000000000000000000000000081526004016101cc9061114d565b60405180910390fd5b476001600254600160003373ffffffffffffffffffffffffffffffffffffffff1673ffffffffffffffffffffffffffffffffffffffff16815260200190815260200160002060000154610228919061119c565b610232919061119c565b10610272576040517f08c379a000000000000000000000000000000000000000000000000000000000815260040161026990611242565b60405180910390fd5b6000600160003373ffffffffffffffffffffffffffffffffffffffff1673ffffffffffffffffffffffffffffffffffffffff1681526020019081526020016000206000015490506000600160003373ffffffffffffffffffffffffffffffffffffffff1673ffffffffffffffffffffffffffffffffffffffff168152602001908152602001600020600001819055503373ffffffffffffffffffffffffffffffffffffffff166108fc60016002548461032b919061119c565b610335919061119c565b9081150290604051600060405180830381858888f19350505050158015610360573d6000803e3d6000fd5b503373ffffffffffffffffffffffffffffffffffffffff167fc37df5d14f305277c1289e9a188a097cda6684189c95f785feb056cb77a8c9106001600254846103a9919061119c565b6103b3919061119c565b6040516103c09190610c7a565b60405180910390a250565b60003373ffffffffffffffffffffffffffffffffffffffff1660008054906101000a900473ffffffffffffffffffffffffffffffffffffffff1673ffffffffffffffffffffffffffffffffffffffff161461045b576040517f08c379a0000000000000000000000000000000000000000000000000000000008152600401610452906112d4565b60405180910390fd5b47905090565b6000600360009054906101000a900473ffffffffffffffffffffffffffffffffffffffff1673ffffffffffffffffffffffffffffffffffffffff1663ce059596836040518263ffffffff1660e01b81526004016104be919061132d565b600060405180830381865afa1580156104db573d6000803e3d6000fd5b505050506040513d6000823e3d601f19601f8201168201806040525081019061050491906114aa565b90508060600151341461054c576040517f08c379a00000000000000000000000000000000000000000000000000000000081526004016105439061153f565b60405180910390fd5b600160003373ffffffffffffffffffffffffffffffffffffffff1673ffffffffffffffffffffffffffffffffffffffff16815260200190815260200160002060010181908060018154018082558091505060019003906000526020600020906004020160009091909190915060008201518160000190805190602001906105d4929190610ba4565b5060208201518160010190805190602001906105f1929190610ba4565b50604082015181600201908051906020019061060e929190610ba4565b50606082015181600301555050600160003373ffffffffffffffffffffffffffffffffffffffff1673ffffffffffffffffffffffffffffffffffffffff168152602001908152602001600020600001600081548092919061066e9061155f565b91905055503373ffffffffffffffffffffffffffffffffffffffff167feb80035384e970fe9c0dd0d76e89e26aea5ac4a8bdb0b43706d2b2686c52a776826040516106b99190611618565b60405180910390a25050565b60003373ffffffffffffffffffffffffffffffffffffffff1660008054906101000a900473ffffffffffffffffffffffffffffffffffffffff1673ffffffffffffffffffffffffffffffffffffffff1614610755576040517f08c379a000000000000000000000000000000000000000000000000000000000815260040161074c906112d4565b60405180910390fd5b6001905090565b3373ffffffffffffffffffffffffffffffffffffffff1660008054906101000a900473ffffffffffffffffffffffffffffffffffffffff1673ffffffffffffffffffffffffffffffffffffffff16146107ea576040517f08c379a00000000000000000000000000000000000000000000000000000000081526004016107e1906112d4565b60405180910390fd5b336000806101000a81548173ffffffffffffffffffffffffffffffffffffffff021916908373ffffffffffffffffffffffffffffffffffffffff160217905550565b610834610c2a565b600160003373ffffffffffffffffffffffffffffffffffffffff1673ffffffffffffffffffffffffffffffffffffffff1681526020019081526020016000206040518060400160405290816000820154815260200160018201805480602002602001604051908101604052809291908181526020016000905b82821015610a9f57838290600052602060002090600402016040518060800160405290816000820180546108e090611669565b80601f016020809104026020016040519081016040528092919081815260200182805461090c90611669565b80156109595780601f1061092e57610100808354040283529160200191610959565b820191906000526020600020905b81548152906001019060200180831161093c57829003601f168201915b5050505050815260200160018201805461097290611669565b80601f016020809104026020016040519081016040528092919081815260200182805461099e90611669565b80156109eb5780601f106109c0576101008083540402835291602001916109eb565b820191906000526020600020905b8154815290600101906020018083116109ce57829003601f168201915b50505050508152602001600282018054610a0490611669565b80601f0160208091040260200160405190810160405280929190818152602001828054610a3090611669565b8015610a7d5780601f10610a5257610100808354040283529160200191610a7d565b820191906000526020600020905b815481529060010190602001808311610a6057829003601f168201915b50505050508152602001600382015481525050815260200190600101906108ad565b5050505081525050905090565b3373ffffffffffffffffffffffffffffffffffffffff1660008054906101000a900473ffffffffffffffffffffffffffffffffffffffff1673ffffffffffffffffffffffffffffffffffffffff1614610b3a576040517f08c379a0000000000000000000000000000000000000000000000000000000008152600401610b31906112d4565b60405180910390fd5b60008054906101000a900473ffffffffffffffffffffffffffffffffffffffff1673ffffffffffffffffffffffffffffffffffffffff166108fc829081150290604051600060405180830381858888f19350505050158015610ba0573d6000803e3d6000fd5b5050565b828054610bb090611669565b90600052602060002090601f016020900481019282610bd25760008555610c19565b82601f10610beb57805160ff1916838001178555610c19565b82800160010185558215610c19579182015b82811115610c18578251825591602001919060010190610bfd565b5b509050610c269190610c44565b5090565b604051806040016040528060008152602001606081525090565b5b80821115610c5d576000816000905550600101610c45565b5090565b6000819050919050565b610c7481610c61565b82525050565b6000602082019050610c8f6000830184610c6b565b92915050565b6000604051905090565b600080fd5b600080fd5b600080fd5b600080fd5b6000601f19601f8301169050919050565b7f4e487b7100000000000000000000000000000000000000000000000000000000600052604160045260246000fd5b610cfc82610cb3565b810181811067ffffffffffffffff82111715610d1b57610d1a610cc4565b5b80604052505050565b6000610d2e610c95565b9050610d3a8282610cf3565b919050565b600067ffffffffffffffff821115610d5a57610d59610cc4565b5b610d6382610cb3565b9050602081019050919050565b82818337600083830152505050565b6000610d92610d8d84610d3f565b610d24565b905082815260208101848484011115610dae57610dad610cae565b5b610db9848285610d70565b509392505050565b600082601f830112610dd657610dd5610ca9565b5b8135610de6848260208601610d7f565b91505092915050565b600060208284031215610e0557610e04610c9f565b5b600082013567ffffffffffffffff811115610e2357610e22610ca4565b5b610e2f84828501610dc1565b91505092915050565b60008115159050919050565b610e4d81610e38565b82525050565b6000602082019050610e686000830184610e44565b92915050565b610e7781610c61565b82525050565b600081519050919050565b600082825260208201905092915050565b6000819050602082019050919050565b600081519050919050565b600082825260208201905092915050565b60005b83811015610ee3578082015181840152602081019050610ec8565b83811115610ef2576000848401525b50505050565b6000610f0382610ea9565b610f0d8185610eb4565b9350610f1d818560208601610ec5565b610f2681610cb3565b840191505092915050565b60006080830160008301518482036000860152610f4e8282610ef8565b91505060208301518482036020860152610f688282610ef8565b91505060408301518482036040860152610f828282610ef8565b9150506060830151610f976060860182610e6e565b508091505092915050565b6000610fae8383610f31565b905092915050565b6000602082019050919050565b6000610fce82610e7d565b610fd88185610e88565b935083602082028501610fea85610e99565b8060005b8581101561102657848403895281516110078582610fa2565b945061101283610fb6565b925060208a01995050600181019050610fee565b50829750879550505050505092915050565b60006040830160008301516110506000860182610e6e565b50602083015184820360208601526110688282610fc3565b9150508091505092915050565b6000602082019050818103600083015261108f8184611038565b905092915050565b6110a081610c61565b81146110ab57600080fd5b50565b6000813590506110bd81611097565b92915050565b6000602082840312156110d9576110d8610c9f565b5b60006110e7848285016110ae565b91505092915050565b600082825260208201905092915050565b7f4e6f7420656e6f7567687420706f696e74730000000000000000000000000000600082015250565b60006111376012836110f0565b915061114282611101565b602082019050919050565b600060208201905081810360008301526111668161112a565b9050919050565b7f4e487b7100000000000000000000000000000000000000000000000000000000600052601160045260246000fd5b60006111a782610c61565b91506111b283610c61565b9250817fffffffffffffffffffffffffffffffffffffffffffffffffffffffffffffffff04831182151516156111eb576111ea61116d565b5b828202905092915050565b7f4e6f7420656e6f756768742062616c616e636500000000000000000000000000600082015250565b600061122c6013836110f0565b9150611237826111f6565b602082019050919050565b6000602082019050818103600083015261125b8161121f565b9050919050565b7f4163636573732044656e6965642c206f6e6c79206f776e65722063616e20616360008201527f636573732074686973207265736f757263650000000000000000000000000000602082015250565b60006112be6032836110f0565b91506112c982611262565b604082019050919050565b600060208201905081810360008301526112ed816112b1565b9050919050565b60006112ff82610ea9565b61130981856110f0565b9350611319818560208601610ec5565b61132281610cb3565b840191505092915050565b6000602082019050818103600083015261134781846112f4565b905092915050565b600080fd5b600080fd5b600061136c61136784610d3f565b610d24565b90508281526020810184848401111561138857611387610cae565b5b611393848285610ec5565b509392505050565b600082601f8301126113b0576113af610ca9565b5b81516113c0848260208601611359565b91505092915050565b6000815190506113d881611097565b92915050565b6000608082840312156113f4576113f361134f565b5b6113fe6080610d24565b9050600082015167ffffffffffffffff81111561141e5761141d611354565b5b61142a8482850161139b565b600083015250602082015167ffffffffffffffff81111561144e5761144d611354565b5b61145a8482850161139b565b602083015250604082015167ffffffffffffffff81111561147e5761147d611354565b5b61148a8482850161139b565b604083015250606061149e848285016113c9565b60608301525092915050565b6000602082840312156114c0576114bf610c9f565b5b600082015167ffffffffffffffff8111156114de576114dd610ca4565b5b6114ea848285016113de565b91505092915050565b7f57726f6e67207072696365000000000000000000000000000000000000000000600082015250565b6000611529600b836110f0565b9150611534826114f3565b602082019050919050565b600060208201905081810360008301526115588161151c565b9050919050565b600061156a82610c61565b91507fffffffffffffffffffffffffffffffffffffffffffffffffffffffffffffffff820361159c5761159b61116d565b5b600182019050919050565b600060808301600083015184820360008601526115c48282610ef8565b915050602083015184820360208601526115de8282610ef8565b915050604083015184820360408601526115f88282610ef8565b915050606083015161160d6060860182610e6e565b508091505092915050565b6000602082019050818103600083015261163281846115a7565b905092915050565b7f4e487b7100000000000000000000000000000000000000000000000000000000600052602260045260246000fd5b6000600282049050600182168061168157607f821691505b6020821081036116945761169361163a565b5b5091905056fea264697066735822122097a807fc306064210d1f028b1f4a86cd7d6ca5c5e49205181bb1fe58c733a11264736f6c634300080d0033",
  "immutableReferences": {},
  "source": "// SPDX-License-Identifier: MIT\r\npragma solidity >=0.4.22 <0.9.0;\r\n\r\nimport \"./Owner.sol\";\r\nimport \"../models/FlightModel.sol\";\r\nimport \"./Flights.sol\";\r\n\r\ncontract Airline is Owner {\r\n    struct User {\r\n        uint loyalityPoints;\r\n        Flight[] bookedFlights;\r\n    }\r\n \r\n    mapping(address => User) users;\r\n    event FlightBooked(address indexed user, Flight flight);\r\n    event PointsRedeemed(address indexed user, uint amount);\r\n    uint etherPerPoint = 0.002 ether;\r\n    Flights flightContract;\r\n    \r\n    constructor(Flights flight) {\r\n        flightContract = flight;\r\n    }\r\n\r\n    function bookFlight(string memory flightNumber) external payable {\r\n        Flight memory flight = flightContract.getFlight(flightNumber);\r\n        require(msg.value ==  flight.price, \"Wrong price\");\r\n        users[msg.sender].bookedFlights.push(flight);\r\n        users[msg.sender].loyalityPoints ++;\r\n        emit FlightBooked(msg.sender, flight);\r\n    }\r\n\r\n    function getUser() external view returns(User memory) {\r\n        return users[msg.sender];\r\n    }\r\n\r\n    function reclaimPoints() external payable {\r\n        require(users[msg.sender].loyalityPoints >= 5, \"Not enought points\");\r\n        require(users[msg.sender].loyalityPoints * etherPerPoint * 1**18 < address(this).balance, \"Not enought balance\");\r\n        uint points = users[msg.sender].loyalityPoints;\r\n        users[msg.sender].loyalityPoints = 0;\r\n        payable(msg.sender).transfer(points * etherPerPoint * 1**18);\r\n        emit PointsRedeemed(msg.sender, points * etherPerPoint * 1**18);\r\n    }\r\n\r\n    function getBalance() external view onlyOwner() returns(uint) {\r\n        return address(this).balance;\r\n    }\r\n\r\n    function getProfit(uint value) external payable onlyOwner {\r\n       payable(owner).transfer(value);\r\n    }\r\n\r\n\r\n\r\n}",
  "sourcePath": "C:\\Users\\WilliamVzquez\\Documents\\sol-web3-course\\the-airline\\contracts\\Airline.sol",
  "compiler": {
    "name": "solc",
    "version": "0.8.13+commit.abaa5c0e.Emscripten.clang"
  },
  "schemaVersion": "3.4.7",
  "updatedAt": "2022-06-27T11:25:30.865Z",
  "networkType": "ethereum",
  "devdoc": {
    "kind": "dev",
    "methods": {},
    "version": 1
  },
  "userdoc": {
    "kind": "user",
    "methods": {},
    "version": 1
  }
}