{
  "contractName": "Airline",
  "abi": [
    {
      "inputs": [
        {
          "internalType": "contract Flights",
          "name": "flight",
          "type": "address"
        }
      ],
      "stateMutability": "nonpayable",
      "type": "constructor"
    },
    {
      "anonymous": false,
      "inputs": [
        {
          "indexed": true,
          "internalType": "address",
          "name": "user",
          "type": "address"
        },
        {
          "components": [
            {
              "internalType": "string",
              "name": "number",
              "type": "string"
            },
            {
              "internalType": "string",
              "name": "origin",
              "type": "string"
            },
            {
              "internalType": "string",
              "name": "destination",
              "type": "string"
            },
            {
              "internalType": "uint256",
              "name": "price",
              "type": "uint256"
            }
          ],
          "indexed": false,
          "internalType": "struct Flight",
          "name": "flight",
          "type": "tuple"
        }
      ],
      "name": "FlightBooked",
      "type": "event"
    },
    {
      "inputs": [],
      "name": "changeOwner",
      "outputs": [],
      "stateMutability": "nonpayable",
      "type": "function"
    },
    {
      "inputs": [
        {
          "internalType": "string",
          "name": "flightNumber",
          "type": "string"
        }
      ],
      "name": "bookFlight",
      "outputs": [],
      "stateMutability": "payable",
      "type": "function"
    },
    {
      "inputs": [],
      "name": "getUser",
      "outputs": [
        {
          "components": [
            {
              "internalType": "uint256",
              "name": "loyalityPoints",
              "type": "uint256"
            },
            {
              "components": [
                {
                  "internalType": "string",
                  "name": "number",
                  "type": "string"
                },
                {
                  "internalType": "string",
                  "name": "origin",
                  "type": "string"
                },
                {
                  "internalType": "string",
                  "name": "destination",
                  "type": "string"
                },
                {
                  "internalType": "uint256",
                  "name": "price",
                  "type": "uint256"
                }
              ],
              "internalType": "struct Flight[]",
              "name": "bookedFlights",
              "type": "tuple[]"
            }
          ],
          "internalType": "struct Airline.User",
          "name": "",
          "type": "tuple"
        }
      ],
      "stateMutability": "view",
      "type": "function"
    },
    {
      "inputs": [],
      "name": "reclaimPoints",
      "outputs": [],
      "stateMutability": "payable",
      "type": "function"
    },
    {
      "inputs": [],
      "name": "getBalance",
      "outputs": [
        {
          "internalType": "uint256",
          "name": "",
          "type": "uint256"
        }
      ],
      "stateMutability": "view",
      "type": "function"
    },
    {
      "inputs": [
        {
          "internalType": "uint256",
          "name": "value",
          "type": "uint256"
        }
      ],
      "name": "getProfit",
      "outputs": [],
      "stateMutability": "payable",
      "type": "function"
    }
  ],
  "bytecode": "0x60806040526702c68af0bb1400006002553480156200001d57600080fd5b50604051620016f4380380620016f4833981810160405281019062000043919062000149565b336000806101000a81548173ffffffffffffffffffffffffffffffffffffffff021916908373ffffffffffffffffffffffffffffffffffffffff16021790555080600360006101000a81548173ffffffffffffffffffffffffffffffffffffffff021916908373ffffffffffffffffffffffffffffffffffffffff160217905550506200017b565b600080fd5b600073ffffffffffffffffffffffffffffffffffffffff82169050919050565b6000620000fd82620000d0565b9050919050565b60006200011182620000f0565b9050919050565b620001238162000104565b81146200012f57600080fd5b50565b600081519050620001438162000118565b92915050565b600060208284031215620001625762000161620000cb565b5b6000620001728482850162000132565b91505092915050565b611569806200018b6000396000f3fe6080604052600436106100555760003560e01c80630c555e401461005a57806312065fe014610064578063328613551461008f57806362a09477146100ab578063832880e7146100c2578063a91b2e9f146100ed575b600080fd5b610062610109565b005b34801561007057600080fd5b5061007961031e565b6040516100869190610b49565b60405180910390f35b6100a960048036038101906100a49190610cbe565b6103b4565b005b3480156100b757600080fd5b506100c061062b565b005b3480156100ce57600080fd5b506100d76106fb565b6040516100e49190610f0e565b60405180910390f35b61010760048036038101906101029190610f5c565b61097b565b005b6005600160003373ffffffffffffffffffffffffffffffffffffffff1673ffffffffffffffffffffffffffffffffffffffff16815260200190815260200160002060000154101561018f576040517f08c379a000000000000000000000000000000000000000000000000000000000815260040161018690610fe6565b60405180910390fd5b476001600254600160003373ffffffffffffffffffffffffffffffffffffffff1673ffffffffffffffffffffffffffffffffffffffff168152602001908152602001600020600001546101e29190611035565b6101ec9190611035565b1061022c576040517f08c379a0000000000000000000000000000000000000000000000000000000008152600401610223906110db565b60405180910390fd5b6000600160003373ffffffffffffffffffffffffffffffffffffffff1673ffffffffffffffffffffffffffffffffffffffff1681526020019081526020016000206000015490506000600160003373ffffffffffffffffffffffffffffffffffffffff1673ffffffffffffffffffffffffffffffffffffffff168152602001908152602001600020600001819055503373ffffffffffffffffffffffffffffffffffffffff166108fc6001600254846102e59190611035565b6102ef9190611035565b9081150290604051600060405180830381858888f1935050505015801561031a573d6000803e3d6000fd5b5050565b60003373ffffffffffffffffffffffffffffffffffffffff1660008054906101000a900473ffffffffffffffffffffffffffffffffffffffff1673ffffffffffffffffffffffffffffffffffffffff16146103ae576040517f08c379a00000000000000000000000000000000000000000000000000000000081526004016103a59061116d565b60405180910390fd5b47905090565b6000600360009054906101000a900473ffffffffffffffffffffffffffffffffffffffff1673ffffffffffffffffffffffffffffffffffffffff1663ce059596836040518263ffffffff1660e01b815260040161041191906111c6565b600060405180830381865afa15801561042e573d6000803e3d6000fd5b505050506040513d6000823e3d601f19601f820116820180604052508101906104579190611343565b9050670de0b6b3a764000081606001516104719190611035565b34146104b2576040517f08c379a00000000000000000000000000000000000000000000000000000000081526004016104a9906113d8565b60405180910390fd5b600160003373ffffffffffffffffffffffffffffffffffffffff1673ffffffffffffffffffffffffffffffffffffffff168152602001908152602001600020600101819080600181540180825580915050600190039060005260206000209060040201600090919091909150600082015181600001908051906020019061053a929190610a73565b506020820151816001019080519060200190610557929190610a73565b506040820151816002019080519060200190610574929190610a73565b50606082015181600301555050600160003373ffffffffffffffffffffffffffffffffffffffff1673ffffffffffffffffffffffffffffffffffffffff16815260200190815260200160002060000160008154809291906105d4906113f8565b91905055503373ffffffffffffffffffffffffffffffffffffffff167feb80035384e970fe9c0dd0d76e89e26aea5ac4a8bdb0b43706d2b2686c52a7768260405161061f91906114b1565b60405180910390a25050565b3373ffffffffffffffffffffffffffffffffffffffff1660008054906101000a900473ffffffffffffffffffffffffffffffffffffffff1673ffffffffffffffffffffffffffffffffffffffff16146106b9576040517f08c379a00000000000000000000000000000000000000000000000000000000081526004016106b09061116d565b60405180910390fd5b336000806101000a81548173ffffffffffffffffffffffffffffffffffffffff021916908373ffffffffffffffffffffffffffffffffffffffff160217905550565b610703610af9565b600160003373ffffffffffffffffffffffffffffffffffffffff1673ffffffffffffffffffffffffffffffffffffffff1681526020019081526020016000206040518060400160405290816000820154815260200160018201805480602002602001604051908101604052809291908181526020016000905b8282101561096e57838290600052602060002090600402016040518060800160405290816000820180546107af90611502565b80601f01602080910402602001604051908101604052809291908181526020018280546107db90611502565b80156108285780601f106107fd57610100808354040283529160200191610828565b820191906000526020600020905b81548152906001019060200180831161080b57829003601f168201915b5050505050815260200160018201805461084190611502565b80601f016020809104026020016040519081016040528092919081815260200182805461086d90611502565b80156108ba5780601f1061088f576101008083540402835291602001916108ba565b820191906000526020600020905b81548152906001019060200180831161089d57829003601f168201915b505050505081526020016002820180546108d390611502565b80601f01602080910402602001604051908101604052809291908181526020018280546108ff90611502565b801561094c5780601f106109215761010080835404028352916020019161094c565b820191906000526020600020905b81548152906001019060200180831161092f57829003601f168201915b505050505081526020016003820154815250508152602001906001019061077c565b5050505081525050905090565b3373ffffffffffffffffffffffffffffffffffffffff1660008054906101000a900473ffffffffffffffffffffffffffffffffffffffff1673ffffffffffffffffffffffffffffffffffffffff1614610a09576040517f08c379a0000000000000000000000000000000000000000000000000000000008152600401610a009061116d565b60405180910390fd5b60008054906101000a900473ffffffffffffffffffffffffffffffffffffffff1673ffffffffffffffffffffffffffffffffffffffff166108fc829081150290604051600060405180830381858888f19350505050158015610a6f573d6000803e3d6000fd5b5050565b828054610a7f90611502565b90600052602060002090601f016020900481019282610aa15760008555610ae8565b82601f10610aba57805160ff1916838001178555610ae8565b82800160010185558215610ae8579182015b82811115610ae7578251825591602001919060010190610acc565b5b509050610af59190610b13565b5090565b604051806040016040528060008152602001606081525090565b5b80821115610b2c576000816000905550600101610b14565b5090565b6000819050919050565b610b4381610b30565b82525050565b6000602082019050610b5e6000830184610b3a565b92915050565b6000604051905090565b600080fd5b600080fd5b600080fd5b600080fd5b6000601f19601f8301169050919050565b7f4e487b7100000000000000000000000000000000000000000000000000000000600052604160045260246000fd5b610bcb82610b82565b810181811067ffffffffffffffff82111715610bea57610be9610b93565b5b80604052505050565b6000610bfd610b64565b9050610c098282610bc2565b919050565b600067ffffffffffffffff821115610c2957610c28610b93565b5b610c3282610b82565b9050602081019050919050565b82818337600083830152505050565b6000610c61610c5c84610c0e565b610bf3565b905082815260208101848484011115610c7d57610c7c610b7d565b5b610c88848285610c3f565b509392505050565b600082601f830112610ca557610ca4610b78565b5b8135610cb5848260208601610c4e565b91505092915050565b600060208284031215610cd457610cd3610b6e565b5b600082013567ffffffffffffffff811115610cf257610cf1610b73565b5b610cfe84828501610c90565b91505092915050565b610d1081610b30565b82525050565b600081519050919050565b600082825260208201905092915050565b6000819050602082019050919050565b600081519050919050565b600082825260208201905092915050565b60005b83811015610d7c578082015181840152602081019050610d61565b83811115610d8b576000848401525b50505050565b6000610d9c82610d42565b610da68185610d4d565b9350610db6818560208601610d5e565b610dbf81610b82565b840191505092915050565b60006080830160008301518482036000860152610de78282610d91565b91505060208301518482036020860152610e018282610d91565b91505060408301518482036040860152610e1b8282610d91565b9150506060830151610e306060860182610d07565b508091505092915050565b6000610e478383610dca565b905092915050565b6000602082019050919050565b6000610e6782610d16565b610e718185610d21565b935083602082028501610e8385610d32565b8060005b85811015610ebf5784840389528151610ea08582610e3b565b9450610eab83610e4f565b925060208a01995050600181019050610e87565b50829750879550505050505092915050565b6000604083016000830151610ee96000860182610d07565b5060208301518482036020860152610f018282610e5c565b9150508091505092915050565b60006020820190508181036000830152610f288184610ed1565b905092915050565b610f3981610b30565b8114610f4457600080fd5b50565b600081359050610f5681610f30565b92915050565b600060208284031215610f7257610f71610b6e565b5b6000610f8084828501610f47565b91505092915050565b600082825260208201905092915050565b7f4e6f7420656e6f7567687420706f696e74730000000000000000000000000000600082015250565b6000610fd0601283610f89565b9150610fdb82610f9a565b602082019050919050565b60006020820190508181036000830152610fff81610fc3565b9050919050565b7f4e487b7100000000000000000000000000000000000000000000000000000000600052601160045260246000fd5b600061104082610b30565b915061104b83610b30565b9250817fffffffffffffffffffffffffffffffffffffffffffffffffffffffffffffffff048311821515161561108457611083611006565b5b828202905092915050565b7f4e6f7420656e6f756768742062616c616e636500000000000000000000000000600082015250565b60006110c5601383610f89565b91506110d08261108f565b602082019050919050565b600060208201905081810360008301526110f4816110b8565b9050919050565b7f4163636573732044656e6965642c206f6e6c79206f776e65722063616e20616360008201527f636573732074686973207265736f757263650000000000000000000000000000602082015250565b6000611157603283610f89565b9150611162826110fb565b604082019050919050565b600060208201905081810360008301526111868161114a565b9050919050565b600061119882610d42565b6111a28185610f89565b93506111b2818560208601610d5e565b6111bb81610b82565b840191505092915050565b600060208201905081810360008301526111e0818461118d565b905092915050565b600080fd5b600080fd5b600061120561120084610c0e565b610bf3565b90508281526020810184848401111561122157611220610b7d565b5b61122c848285610d5e565b509392505050565b600082601f83011261124957611248610b78565b5b81516112598482602086016111f2565b91505092915050565b60008151905061127181610f30565b92915050565b60006080828403121561128d5761128c6111e8565b5b6112976080610bf3565b9050600082015167ffffffffffffffff8111156112b7576112b66111ed565b5b6112c384828501611234565b600083015250602082015167ffffffffffffffff8111156112e7576112e66111ed565b5b6112f384828501611234565b602083015250604082015167ffffffffffffffff811115611317576113166111ed565b5b61132384828501611234565b604083015250606061133784828501611262565b60608301525092915050565b60006020828403121561135957611358610b6e565b5b600082015167ffffffffffffffff81111561137757611376610b73565b5b61138384828501611277565b91505092915050565b7f57726f6e67207072696365000000000000000000000000000000000000000000600082015250565b60006113c2600b83610f89565b91506113cd8261138c565b602082019050919050565b600060208201905081810360008301526113f1816113b5565b9050919050565b600061140382610b30565b91507fffffffffffffffffffffffffffffffffffffffffffffffffffffffffffffffff820361143557611434611006565b5b600182019050919050565b6000608083016000830151848203600086015261145d8282610d91565b915050602083015184820360208601526114778282610d91565b915050604083015184820360408601526114918282610d91565b91505060608301516114a66060860182610d07565b508091505092915050565b600060208201905081810360008301526114cb8184611440565b905092915050565b7f4e487b7100000000000000000000000000000000000000000000000000000000600052602260045260246000fd5b6000600282049050600182168061151a57607f821691505b60208210810361152d5761152c6114d3565b5b5091905056fea2646970667358221220b9a40b187cf67a906c9feb79645794b2d455ea166645b09b452ffe34cc28c03664736f6c634300080d0033",
  "immutableReferences": {},
  "source": "// SPDX-License-Identifier: MIT\r\npragma solidity >=0.4.22 <0.9.0;\r\n\r\nimport \"./Owner.sol\";\r\nimport \"../models/FlightModel.sol\";\r\nimport \"./Flights.sol\";\r\n\r\ncontract Airline is Owner {\r\n    struct User {\r\n        uint loyalityPoints;\r\n        Flight[] bookedFlights;\r\n    }\r\n \r\n    mapping(address => User) users;\r\n    event FlightBooked(address indexed user, Flight flight);\r\n    uint etherPerPoint = 0.2 ether;\r\n    Flights flightContract;\r\n    \r\n    constructor(Flights flight) {\r\n        flightContract = flight;\r\n    }\r\n\r\n    function bookFlight(string memory flightNumber) external payable {\r\n        Flight memory flight = flightContract.getFlight(flightNumber);\r\n        require(msg.value ==  flight.price * 10**18, \"Wrong price\");\r\n        users[msg.sender].bookedFlights.push(flight);\r\n        users[msg.sender].loyalityPoints ++;\r\n        emit FlightBooked(msg.sender, flight);\r\n    }\r\n\r\n    function getUser() external view returns(User memory) {\r\n        return users[msg.sender];\r\n    }\r\n\r\n    function reclaimPoints() external payable {\r\n        require(users[msg.sender].loyalityPoints >= 5, \"Not enought points\");\r\n        require(users[msg.sender].loyalityPoints * etherPerPoint * 1**18 < address(this).balance, \"Not enought balance\");\r\n        uint points = users[msg.sender].loyalityPoints;\r\n        users[msg.sender].loyalityPoints = 0;\r\n        payable(msg.sender).transfer(points * etherPerPoint * 1**18);\r\n    }\r\n\r\n    function getBalance() external view onlyOwner() returns(uint) {\r\n        return address(this).balance;\r\n    }\r\n\r\n    function getProfit(uint value) external payable onlyOwner {\r\n       payable(owner).transfer(value);\r\n    }\r\n\r\n\r\n\r\n}",
  "sourcePath": "C:\\Users\\WilliamVzquez\\Documents\\sol-web3-course\\the-airline\\contracts\\Airline.sol",
  "compiler": {
    "name": "solc",
    "version": "0.8.13+commit.abaa5c0e.Emscripten.clang"
  },
  "schemaVersion": "3.4.7",
  "updatedAt": "2022-06-13T11:38:13.663Z",
  "devdoc": {
    "kind": "dev",
    "methods": {},
    "version": 1
  },
  "userdoc": {
    "kind": "user",
    "methods": {},
    "version": 1
  }
}