{
  "contractName": "Flights",
  "abi": [
    {
      "anonymous": false,
      "inputs": [
        {
          "components": [
            {
              "internalType": "string",
              "name": "number",
              "type": "string"
            },
            {
              "internalType": "string",
              "name": "origin",
              "type": "string"
            },
            {
              "internalType": "string",
              "name": "destination",
              "type": "string"
            },
            {
              "internalType": "uint256",
              "name": "price",
              "type": "uint256"
            }
          ],
          "indexed": false,
          "internalType": "struct Flight",
          "name": "flight",
          "type": "tuple"
        }
      ],
      "name": "FlightAdded",
      "type": "event"
    },
    {
      "inputs": [],
      "name": "amIOwner",
      "outputs": [
        {
          "internalType": "bool",
          "name": "",
          "type": "bool"
        }
      ],
      "stateMutability": "view",
      "type": "function",
      "constant": true
    },
    {
      "inputs": [],
      "name": "changeOwner",
      "outputs": [],
      "stateMutability": "nonpayable",
      "type": "function"
    },
    {
      "inputs": [
        {
          "components": [
            {
              "internalType": "string",
              "name": "number",
              "type": "string"
            },
            {
              "internalType": "string",
              "name": "origin",
              "type": "string"
            },
            {
              "internalType": "string",
              "name": "destination",
              "type": "string"
            },
            {
              "internalType": "uint256",
              "name": "price",
              "type": "uint256"
            }
          ],
          "internalType": "struct Flight",
          "name": "flight",
          "type": "tuple"
        }
      ],
      "name": "addFlight",
      "outputs": [],
      "stateMutability": "nonpayable",
      "type": "function"
    },
    {
      "inputs": [
        {
          "components": [
            {
              "internalType": "string",
              "name": "number",
              "type": "string"
            },
            {
              "internalType": "string",
              "name": "origin",
              "type": "string"
            },
            {
              "internalType": "string",
              "name": "destination",
              "type": "string"
            },
            {
              "internalType": "uint256",
              "name": "price",
              "type": "uint256"
            }
          ],
          "internalType": "struct Flight[]",
          "name": "seedFlights",
          "type": "tuple[]"
        }
      ],
      "name": "addMultiplesFlights",
      "outputs": [],
      "stateMutability": "nonpayable",
      "type": "function"
    },
    {
      "inputs": [
        {
          "internalType": "string",
          "name": "number",
          "type": "string"
        }
      ],
      "name": "isFlightAvailiable",
      "outputs": [
        {
          "internalType": "bool",
          "name": "",
          "type": "bool"
        }
      ],
      "stateMutability": "view",
      "type": "function",
      "constant": true
    },
    {
      "inputs": [],
      "name": "getAvailableFlights",
      "outputs": [
        {
          "components": [
            {
              "internalType": "string",
              "name": "number",
              "type": "string"
            },
            {
              "internalType": "string",
              "name": "origin",
              "type": "string"
            },
            {
              "internalType": "string",
              "name": "destination",
              "type": "string"
            },
            {
              "internalType": "uint256",
              "name": "price",
              "type": "uint256"
            }
          ],
          "internalType": "struct Flight[]",
          "name": "",
          "type": "tuple[]"
        }
      ],
      "stateMutability": "view",
      "type": "function",
      "constant": true
    },
    {
      "inputs": [
        {
          "internalType": "string",
          "name": "flightNumber",
          "type": "string"
        }
      ],
      "name": "getFlight",
      "outputs": [
        {
          "components": [
            {
              "internalType": "string",
              "name": "number",
              "type": "string"
            },
            {
              "internalType": "string",
              "name": "origin",
              "type": "string"
            },
            {
              "internalType": "string",
              "name": "destination",
              "type": "string"
            },
            {
              "internalType": "uint256",
              "name": "price",
              "type": "uint256"
            }
          ],
          "internalType": "struct Flight",
          "name": "",
          "type": "tuple"
        }
      ],
      "stateMutability": "view",
      "type": "function",
      "constant": true
    }
  ],
  "bytecode": "0x608060405234801561001057600080fd5b50336000806101000a81548173ffffffffffffffffffffffffffffffffffffffff021916908373ffffffffffffffffffffffffffffffffffffffff160217905550611626806100606000396000f3fe608060405234801561001057600080fd5b506004361061007d5760003560e01c806379fb72741161005b57806379fb7274146100c85780638cde993d146100f8578063ce05959614610114578063d4115489146101445761007d565b80631a9ffee7146100825780634e4ab830146100a057806362a09477146100be575b600080fd5b61008a610160565b6040516100979190610d93565b60405180910390f35b6100a861037f565b6040516100b59190610dd0565b60405180910390f35b6100c6610416565b005b6100e260048036038101906100dd9190610f34565b6104e6565b6040516100ef9190610dd0565b60405180910390f35b610112600480360381019061010d919061107f565b61051b565b005b61012e60048036038101906101299190610f34565b6107cf565b60405161013b9190611139565b60405180910390f35b61015e60048036038101906101599190611241565b610a0f565b005b60606003805480602002602001604051908101604052809291908181526020016000905b8282101561037657838290600052602060002090600402016040518060800160405290816000820180546101b7906112b9565b80601f01602080910402602001604051908101604052809291908181526020018280546101e3906112b9565b80156102305780601f1061020557610100808354040283529160200191610230565b820191906000526020600020905b81548152906001019060200180831161021357829003601f168201915b50505050508152602001600182018054610249906112b9565b80601f0160208091040260200160405190810160405280929190818152602001828054610275906112b9565b80156102c25780601f10610297576101008083540402835291602001916102c2565b820191906000526020600020905b8154815290600101906020018083116102a557829003601f168201915b505050505081526020016002820180546102db906112b9565b80601f0160208091040260200160405190810160405280929190818152602001828054610307906112b9565b80156103545780601f1061032957610100808354040283529160200191610354565b820191906000526020600020905b81548152906001019060200180831161033757829003601f168201915b5050505050815260200160038201548152505081526020019060010190610184565b50505050905090565b60003373ffffffffffffffffffffffffffffffffffffffff1660008054906101000a900473ffffffffffffffffffffffffffffffffffffffff1673ffffffffffffffffffffffffffffffffffffffff161461040f576040517f08c379a00000000000000000000000000000000000000000000000000000000081526004016104069061136d565b60405180910390fd5b6001905090565b3373ffffffffffffffffffffffffffffffffffffffff1660008054906101000a900473ffffffffffffffffffffffffffffffffffffffff1673ffffffffffffffffffffffffffffffffffffffff16146104a4576040517f08c379a000000000000000000000000000000000000000000000000000000000815260040161049b9061136d565b60405180910390fd5b336000806101000a81548173ffffffffffffffffffffffffffffffffffffffff021916908373ffffffffffffffffffffffffffffffffffffffff160217905550565b60006002826040516104f891906113c9565b908152602001604051809103902060009054906101000a900460ff169050919050565b3373ffffffffffffffffffffffffffffffffffffffff1660008054906101000a900473ffffffffffffffffffffffffffffffffffffffff1673ffffffffffffffffffffffffffffffffffffffff16146105a9576040517f08c379a00000000000000000000000000000000000000000000000000000000081526004016105a09061136d565b60405180910390fd5b6105b681600001516104e6565b156105f6576040517f08c379a00000000000000000000000000000000000000000000000000000000081526004016105ed9061142c565b60405180910390fd5b662386f26fc1000081606001511015610644576040517f08c379a000000000000000000000000000000000000000000000000000000000815260040161063b906114be565b60405180910390fd5b60016002826000015160405161065a91906113c9565b908152602001604051809103902060006101000a81548160ff021916908315150217905550806001826000015160405161069491906113c9565b908152602001604051809103902060008201518160000190805190602001906106be929190610ae3565b5060208201518160010190805190602001906106db929190610ae3565b5060408201518160020190805190602001906106f8929190610ae3565b50606082015181600301559050506003819080600181540180825580915050600190039060005260206000209060040201600090919091909150600082015181600001908051906020019061074e929190610ae3565b50602082015181600101908051906020019061076b929190610ae3565b506040820151816002019080519060200190610788929190610ae3565b506060820151816003015550507fddd197767c7a2b1a3fa71853e3fd46419b663175947e8a97d59d69a40de9aeda816040516107c49190611139565b60405180910390a150565b6107d7610b69565b6107e0826104e6565b61081f576040517f08c379a00000000000000000000000000000000000000000000000000000000081526004016108169061152a565b60405180910390fd5b60018260405161082f91906113c9565b9081526020016040518091039020604051806080016040529081600082018054610858906112b9565b80601f0160208091040260200160405190810160405280929190818152602001828054610884906112b9565b80156108d15780601f106108a6576101008083540402835291602001916108d1565b820191906000526020600020905b8154815290600101906020018083116108b457829003601f168201915b505050505081526020016001820180546108ea906112b9565b80601f0160208091040260200160405190810160405280929190818152602001828054610916906112b9565b80156109635780601f1061093857610100808354040283529160200191610963565b820191906000526020600020905b81548152906001019060200180831161094657829003601f168201915b5050505050815260200160028201805461097c906112b9565b80601f01602080910402602001604051908101604052809291908181526020018280546109a8906112b9565b80156109f55780601f106109ca576101008083540402835291602001916109f5565b820191906000526020600020905b8154815290600101906020018083116109d857829003601f168201915b505050505081526020016003820154815250509050919050565b3373ffffffffffffffffffffffffffffffffffffffff1660008054906101000a900473ffffffffffffffffffffffffffffffffffffffff1673ffffffffffffffffffffffffffffffffffffffff1614610a9d576040517f08c379a0000000000000000000000000000000000000000000000000000000008152600401610a949061136d565b60405180910390fd5b60005b8151811015610adf57610acc828281518110610abf57610abe61154a565b5b602002602001015161051b565b8080610ad7906115a8565b915050610aa0565b5050565b828054610aef906112b9565b90600052602060002090601f016020900481019282610b115760008555610b58565b82601f10610b2a57805160ff1916838001178555610b58565b82800160010185558215610b58579182015b82811115610b57578251825591602001919060010190610b3c565b5b509050610b659190610b91565b5090565b6040518060800160405280606081526020016060815260200160608152602001600081525090565b5b80821115610baa576000816000905550600101610b92565b5090565b600081519050919050565b600082825260208201905092915050565b6000819050602082019050919050565b600081519050919050565b600082825260208201905092915050565b60005b83811015610c14578082015181840152602081019050610bf9565b83811115610c23576000848401525b50505050565b6000601f19601f8301169050919050565b6000610c4582610bda565b610c4f8185610be5565b9350610c5f818560208601610bf6565b610c6881610c29565b840191505092915050565b6000819050919050565b610c8681610c73565b82525050565b60006080830160008301518482036000860152610ca98282610c3a565b91505060208301518482036020860152610cc38282610c3a565b91505060408301518482036040860152610cdd8282610c3a565b9150506060830151610cf26060860182610c7d565b508091505092915050565b6000610d098383610c8c565b905092915050565b6000602082019050919050565b6000610d2982610bae565b610d338185610bb9565b935083602082028501610d4585610bca565b8060005b85811015610d815784840389528151610d628582610cfd565b9450610d6d83610d11565b925060208a01995050600181019050610d49565b50829750879550505050505092915050565b60006020820190508181036000830152610dad8184610d1e565b905092915050565b60008115159050919050565b610dca81610db5565b82525050565b6000602082019050610de56000830184610dc1565b92915050565b6000604051905090565b600080fd5b600080fd5b600080fd5b600080fd5b7f4e487b7100000000000000000000000000000000000000000000000000000000600052604160045260246000fd5b610e4182610c29565b810181811067ffffffffffffffff82111715610e6057610e5f610e09565b5b80604052505050565b6000610e73610deb565b9050610e7f8282610e38565b919050565b600067ffffffffffffffff821115610e9f57610e9e610e09565b5b610ea882610c29565b9050602081019050919050565b82818337600083830152505050565b6000610ed7610ed284610e84565b610e69565b905082815260208101848484011115610ef357610ef2610e04565b5b610efe848285610eb5565b509392505050565b600082601f830112610f1b57610f1a610dff565b5b8135610f2b848260208601610ec4565b91505092915050565b600060208284031215610f4a57610f49610df5565b5b600082013567ffffffffffffffff811115610f6857610f67610dfa565b5b610f7484828501610f06565b91505092915050565b600080fd5b600080fd5b610f9081610c73565b8114610f9b57600080fd5b50565b600081359050610fad81610f87565b92915050565b600060808284031215610fc957610fc8610f7d565b5b610fd36080610e69565b9050600082013567ffffffffffffffff811115610ff357610ff2610f82565b5b610fff84828501610f06565b600083015250602082013567ffffffffffffffff81111561102357611022610f82565b5b61102f84828501610f06565b602083015250604082013567ffffffffffffffff81111561105357611052610f82565b5b61105f84828501610f06565b604083015250606061107384828501610f9e565b60608301525092915050565b60006020828403121561109557611094610df5565b5b600082013567ffffffffffffffff8111156110b3576110b2610dfa565b5b6110bf84828501610fb3565b91505092915050565b600060808301600083015184820360008601526110e58282610c3a565b915050602083015184820360208601526110ff8282610c3a565b915050604083015184820360408601526111198282610c3a565b915050606083015161112e6060860182610c7d565b508091505092915050565b6000602082019050818103600083015261115381846110c8565b905092915050565b600067ffffffffffffffff82111561117657611175610e09565b5b602082029050602081019050919050565b600080fd5b600061119f61119a8461115b565b610e69565b905080838252602082019050602084028301858111156111c2576111c1611187565b5b835b8181101561120957803567ffffffffffffffff8111156111e7576111e6610dff565b5b8086016111f48982610fb3565b855260208501945050506020810190506111c4565b5050509392505050565b600082601f83011261122857611227610dff565b5b813561123884826020860161118c565b91505092915050565b60006020828403121561125757611256610df5565b5b600082013567ffffffffffffffff81111561127557611274610dfa565b5b61128184828501611213565b91505092915050565b7f4e487b7100000000000000000000000000000000000000000000000000000000600052602260045260246000fd5b600060028204905060018216806112d157607f821691505b6020821081036112e4576112e361128a565b5b50919050565b600082825260208201905092915050565b7f4163636573732044656e6965642c206f6e6c79206f776e65722063616e20616360008201527f636573732074686973207265736f757263650000000000000000000000000000602082015250565b60006113576032836112ea565b9150611362826112fb565b604082019050919050565b600060208201905081810360008301526113868161134a565b9050919050565b600081905092915050565b60006113a382610bda565b6113ad818561138d565b93506113bd818560208601610bf6565b80840191505092915050565b60006113d58284611398565b915081905092915050565b7f466c6967687420616c7265616479207265676973746572656400000000000000600082015250565b60006114166019836112ea565b9150611421826113e0565b602082019050919050565b6000602082019050818103600083015261144581611409565b9050919050565b7f41206c6f77657220707269636520636f756c64206861636b2074686520636f6e60008201527f7472616374000000000000000000000000000000000000000000000000000000602082015250565b60006114a86025836112ea565b91506114b38261144c565b604082019050919050565b600060208201905081810360008301526114d78161149b565b9050919050565b7f466c69676874206e6f7420617661696c61626c65000000000000000000000000600082015250565b60006115146014836112ea565b915061151f826114de565b602082019050919050565b6000602082019050818103600083015261154381611507565b9050919050565b7f4e487b7100000000000000000000000000000000000000000000000000000000600052603260045260246000fd5b7f4e487b7100000000000000000000000000000000000000000000000000000000600052601160045260246000fd5b60006115b382610c73565b91507fffffffffffffffffffffffffffffffffffffffffffffffffffffffffffffffff82036115e5576115e4611579565b5b60018201905091905056fea2646970667358221220dfa9c71fdcb7686bd35f2d7d9aed97121af4ae1e0ca35be59add4acf824224d164736f6c634300080d0033",
  "immutableReferences": {},
  "source": "// SPDX-License-Identifier: MIT\r\npragma solidity >=0.4.22 <0.9.0;\r\nimport \"./Owner.sol\";\r\nimport \"../models/FlightModel.sol\";\r\n\r\ncontract Flights is Owner {\r\n    mapping(string => Flight) private flights;\r\n    mapping(string => bool) private availableFlights;\r\n    Flight[] private availableFlightsList;\r\n\r\n    event FlightAdded(Flight flight);\r\n\r\n    function addFlight(Flight memory flight) public onlyOwner() {\r\n        require(!isFlightAvailiable(flight.number), \"Flight already registered\");\r\n        require(flight.price >= 0.01 ether, \"A lower price could hack the contract\");\r\n        availableFlights[flight.number] = true;\r\n        flights[flight.number] = flight;\r\n        availableFlightsList.push(flight);\r\n        emit FlightAdded(flight);\r\n    }\r\n\r\n    function addMultiplesFlights(Flight[] memory seedFlights) external onlyOwner() {\r\n          for (uint256 i = 0; i < seedFlights.length; i++) {\r\n            addFlight(seedFlights[i]);\r\n        }\r\n    }\r\n\r\n    function isFlightAvailiable(string memory number) public view returns(bool) {\r\n        return availableFlights[number];\r\n    }\r\n\r\n    function getAvailableFlights() external view returns(Flight[] memory) {\r\n        return availableFlightsList;\r\n    }\r\n\r\n    function getFlight(string memory flightNumber) external view returns(Flight memory) {\r\n        require(isFlightAvailiable(flightNumber), \"Flight not available\");\r\n        return flights[flightNumber]; \r\n    }\r\n}",
  "sourcePath": "C:\\Users\\WilliamVzquez\\Documents\\sol-web3-course\\the-airline\\contracts\\Flights.sol",
  "compiler": {
    "name": "solc",
    "version": "0.8.13+commit.abaa5c0e.Emscripten.clang"
  },
  "schemaVersion": "3.4.7",
  "updatedAt": "2022-06-27T11:25:30.875Z",
  "networkType": "ethereum",
  "devdoc": {
    "kind": "dev",
    "methods": {},
    "version": 1
  },
  "userdoc": {
    "kind": "user",
    "methods": {},
    "version": 1
  }
}