{
  "contractName": "Flights",
  "abi": [
    {
      "inputs": [],
      "stateMutability": "nonpayable",
      "type": "constructor"
    },
    {
      "anonymous": false,
      "inputs": [
        {
          "components": [
            {
              "internalType": "string",
              "name": "number",
              "type": "string"
            },
            {
              "internalType": "string",
              "name": "origin",
              "type": "string"
            },
            {
              "internalType": "string",
              "name": "destination",
              "type": "string"
            },
            {
              "internalType": "uint256",
              "name": "price",
              "type": "uint256"
            }
          ],
          "indexed": false,
          "internalType": "struct Flight",
          "name": "flight",
          "type": "tuple"
        }
      ],
      "name": "FlightAdded",
      "type": "event"
    },
    {
      "inputs": [],
      "name": "changeOwner",
      "outputs": [],
      "stateMutability": "nonpayable",
      "type": "function"
    },
    {
      "inputs": [
        {
          "components": [
            {
              "internalType": "string",
              "name": "number",
              "type": "string"
            },
            {
              "internalType": "string",
              "name": "origin",
              "type": "string"
            },
            {
              "internalType": "string",
              "name": "destination",
              "type": "string"
            },
            {
              "internalType": "uint256",
              "name": "price",
              "type": "uint256"
            }
          ],
          "internalType": "struct Flight",
          "name": "flight",
          "type": "tuple"
        }
      ],
      "name": "addFlight",
      "outputs": [],
      "stateMutability": "nonpayable",
      "type": "function"
    },
    {
      "inputs": [
        {
          "internalType": "string",
          "name": "number",
          "type": "string"
        }
      ],
      "name": "isFlightAvailiable",
      "outputs": [
        {
          "internalType": "bool",
          "name": "",
          "type": "bool"
        }
      ],
      "stateMutability": "view",
      "type": "function"
    },
    {
      "inputs": [],
      "name": "getAvailableFlights",
      "outputs": [
        {
          "components": [
            {
              "internalType": "string",
              "name": "number",
              "type": "string"
            },
            {
              "internalType": "string",
              "name": "origin",
              "type": "string"
            },
            {
              "internalType": "string",
              "name": "destination",
              "type": "string"
            },
            {
              "internalType": "uint256",
              "name": "price",
              "type": "uint256"
            }
          ],
          "internalType": "struct Flight[]",
          "name": "",
          "type": "tuple[]"
        }
      ],
      "stateMutability": "view",
      "type": "function"
    },
    {
      "inputs": [
        {
          "internalType": "string",
          "name": "flightNumber",
          "type": "string"
        }
      ],
      "name": "getFlight",
      "outputs": [
        {
          "components": [
            {
              "internalType": "string",
              "name": "number",
              "type": "string"
            },
            {
              "internalType": "string",
              "name": "origin",
              "type": "string"
            },
            {
              "internalType": "string",
              "name": "destination",
              "type": "string"
            },
            {
              "internalType": "uint256",
              "name": "price",
              "type": "uint256"
            }
          ],
          "internalType": "struct Flight",
          "name": "",
          "type": "tuple"
        }
      ],
      "stateMutability": "view",
      "type": "function"
    }
  ],
  "bytecode": "0x60806040523480156200001157600080fd5b50336000806101000a81548173ffffffffffffffffffffffffffffffffffffffff021916908373ffffffffffffffffffffffffffffffffffffffff16021790555060006040518060c0016040528060405180608001604052806040518060400160405280600581526020017f434431323300000000000000000000000000000000000000000000000000000081525081526020016040518060400160405280600381526020017f4d4144000000000000000000000000000000000000000000000000000000000081525081526020016040518060400160405280600381526020017f564152000000000000000000000000000000000000000000000000000000000081525081526020016005815250815260200160405180608001604052806040518060400160405280600581526020017f434434353600000000000000000000000000000000000000000000000000000081525081526020016040518060400160405280600381526020017f484156000000000000000000000000000000000000000000000000000000000081525081526020016040518060400160405280600381526020017f4d4941000000000000000000000000000000000000000000000000000000000081525081526020016002815250815260200160405180608001604052806040518060400160405280600581526020017f434437363800000000000000000000000000000000000000000000000000000081525081526020016040518060400160405280600381526020017f544f4b000000000000000000000000000000000000000000000000000000000081525081526020016040518060400160405280600381526020017f414d53000000000000000000000000000000000000000000000000000000000081525081526020016006815250815260200160405180608001604052806040518060400160405280600581526020017f555837363800000000000000000000000000000000000000000000000000000081525081526020016040518060400160405280600381526020017f4d4144000000000000000000000000000000000000000000000000000000000081525081526020016040518060400160405280600381526020017f414750000000000000000000000000000000000000000000000000000000000081525081526020016002815250815260200160405180608001604052806040518060400160405280600581526020017f445837363800000000000000000000000000000000000000000000000000000081525081526020016040518060400160405280600381526020017f4d4144000000000000000000000000000000000000000000000000000000000081525081526020016040518060400160405280600381526020017f43554e000000000000000000000000000000000000000000000000000000000081525081526020016004815250815260200160405180608001604052806040518060400160405280600581526020017f445837363900000000000000000000000000000000000000000000000000000081525081526020016040518060400160405280600381526020017f504152000000000000000000000000000000000000000000000000000000000081525081526020016040518060400160405280600381526020017f4c4f4e000000000000000000000000000000000000000000000000000000000081525081526020016002815250815250905060005b600681101562000551576200053b8282600681106200052a576200052962000911565b5b60200201516200055960201b60201c565b8080620005489062000979565b91505062000506565b505062000d8a565b3373ffffffffffffffffffffffffffffffffffffffff1660008054906101000a900473ffffffffffffffffffffffffffffffffffffffff1673ffffffffffffffffffffffffffffffffffffffff1614620005ea576040517f08c379a0000000000000000000000000000000000000000000000000000000008152600401620005e19062000a4d565b60405180910390fd5b620005ff81600001516200082a60201b60201c565b1562000642576040517f08c379a0000000000000000000000000000000000000000000000000000000008152600401620006399062000abf565b60405180910390fd5b6001816060015110156200068d576040517f08c379a0000000000000000000000000000000000000000000000000000000008152600401620006849062000b57565b60405180910390fd5b600160028260000151604051620006a5919062000bfc565b908152602001604051809103902060006101000a81548160ff0219169083151502179055508060018260000151604051620006e1919062000bfc565b908152602001604051809103902060008201518160000190805190602001906200070d92919062000861565b5060208201518160010190805190602001906200072c92919062000861565b5060408201518160020190805190602001906200074b92919062000861565b506060820151816003015590505060038190806001815401808255809150506001900390600052602060002090600402016000909190919091506000820151816000019080519060200190620007a392919062000861565b506020820151816001019080519060200190620007c292919062000861565b506040820151816002019080519060200190620007e192919062000861565b506060820151816003015550507fddd197767c7a2b1a3fa71853e3fd46419b663175947e8a97d59d69a40de9aeda816040516200081f919062000d02565b60405180910390a150565b60006002826040516200083e919062000bfc565b908152602001604051809103902060009054906101000a900460ff169050919050565b8280546200086f9062000d55565b90600052602060002090601f016020900481019282620008935760008555620008df565b82601f10620008ae57805160ff1916838001178555620008df565b82800160010185558215620008df579182015b82811115620008de578251825591602001919060010190620008c1565b5b509050620008ee9190620008f2565b5090565b5b808211156200090d576000816000905550600101620008f3565b5090565b7f4e487b7100000000000000000000000000000000000000000000000000000000600052603260045260246000fd5b7f4e487b7100000000000000000000000000000000000000000000000000000000600052601160045260246000fd5b6000819050919050565b600062000986826200096f565b91507fffffffffffffffffffffffffffffffffffffffffffffffffffffffffffffffff8203620009bb57620009ba62000940565b5b600182019050919050565b600082825260208201905092915050565b7f4163636573732044656e6965642c206f6e6c79206f776e65722063616e20616360008201527f636573732074686973207265736f757263650000000000000000000000000000602082015250565b600062000a35603283620009c6565b915062000a4282620009d7565b604082019050919050565b6000602082019050818103600083015262000a688162000a26565b9050919050565b7f466c6967687420616c7265616479207265676973746572656400000000000000600082015250565b600062000aa7601983620009c6565b915062000ab48262000a6f565b602082019050919050565b6000602082019050818103600083015262000ada8162000a98565b9050919050565b7f41206c6f77657220707269636520636f756c64206861636b2074686520636f6e60008201527f7472616374000000000000000000000000000000000000000000000000000000602082015250565b600062000b3f602583620009c6565b915062000b4c8262000ae1565b604082019050919050565b6000602082019050818103600083015262000b728162000b30565b9050919050565b600081519050919050565b600081905092915050565b60005b8381101562000baf57808201518184015260208101905062000b92565b8381111562000bbf576000848401525b50505050565b600062000bd28262000b79565b62000bde818562000b84565b935062000bf081856020860162000b8f565b80840191505092915050565b600062000c0a828462000bc5565b915081905092915050565b600082825260208201905092915050565b6000601f19601f8301169050919050565b600062000c448262000b79565b62000c50818562000c15565b935062000c6281856020860162000b8f565b62000c6d8162000c26565b840191505092915050565b62000c83816200096f565b82525050565b6000608083016000830151848203600086015262000ca8828262000c37565b9150506020830151848203602086015262000cc4828262000c37565b9150506040830151848203604086015262000ce0828262000c37565b915050606083015162000cf7606086018262000c78565b508091505092915050565b6000602082019050818103600083015262000d1e818462000c89565b905092915050565b7f4e487b7100000000000000000000000000000000000000000000000000000000600052602260045260246000fd5b6000600282049050600182168062000d6e57607f821691505b60208210810362000d845762000d8362000d26565b5b50919050565b6112808062000d9a6000396000f3fe608060405234801561001057600080fd5b50600436106100575760003560e01c80631a9ffee71461005c57806362a094771461007a57806379fb7274146100845780638cde993d146100b4578063ce059596146100d0575b600080fd5b610064610100565b6040516100719190610bc2565b60405180910390f35b61008261031f565b005b61009e60048036038101906100999190610d2d565b6103ef565b6040516100ab9190610d91565b60405180910390f35b6100ce60048036038101906100c99190610eae565b610424565b005b6100ea60048036038101906100e59190610d2d565b6106d2565b6040516100f79190610f68565b60405180910390f35b60606003805480602002602001604051908101604052809291908181526020016000905b82821015610316578382906000526020600020906004020160405180608001604052908160008201805461015790610fb9565b80601f016020809104026020016040519081016040528092919081815260200182805461018390610fb9565b80156101d05780601f106101a5576101008083540402835291602001916101d0565b820191906000526020600020905b8154815290600101906020018083116101b357829003601f168201915b505050505081526020016001820180546101e990610fb9565b80601f016020809104026020016040519081016040528092919081815260200182805461021590610fb9565b80156102625780601f1061023757610100808354040283529160200191610262565b820191906000526020600020905b81548152906001019060200180831161024557829003601f168201915b5050505050815260200160028201805461027b90610fb9565b80601f01602080910402602001604051908101604052809291908181526020018280546102a790610fb9565b80156102f45780601f106102c9576101008083540402835291602001916102f4565b820191906000526020600020905b8154815290600101906020018083116102d757829003601f168201915b5050505050815260200160038201548152505081526020019060010190610124565b50505050905090565b3373ffffffffffffffffffffffffffffffffffffffff1660008054906101000a900473ffffffffffffffffffffffffffffffffffffffff1673ffffffffffffffffffffffffffffffffffffffff16146103ad576040517f08c379a00000000000000000000000000000000000000000000000000000000081526004016103a49061106d565b60405180910390fd5b336000806101000a81548173ffffffffffffffffffffffffffffffffffffffff021916908373ffffffffffffffffffffffffffffffffffffffff160217905550565b600060028260405161040191906110c9565b908152602001604051809103902060009054906101000a900460ff169050919050565b3373ffffffffffffffffffffffffffffffffffffffff1660008054906101000a900473ffffffffffffffffffffffffffffffffffffffff1673ffffffffffffffffffffffffffffffffffffffff16146104b2576040517f08c379a00000000000000000000000000000000000000000000000000000000081526004016104a99061106d565b60405180910390fd5b6104bf81600001516103ef565b156104ff576040517f08c379a00000000000000000000000000000000000000000000000000000000081526004016104f69061112c565b60405180910390fd5b600181606001511015610547576040517f08c379a000000000000000000000000000000000000000000000000000000000815260040161053e906111be565b60405180910390fd5b60016002826000015160405161055d91906110c9565b908152602001604051809103902060006101000a81548160ff021916908315150217905550806001826000015160405161059791906110c9565b908152602001604051809103902060008201518160000190805190602001906105c1929190610912565b5060208201518160010190805190602001906105de929190610912565b5060408201518160020190805190602001906105fb929190610912565b506060820151816003015590505060038190806001815401808255809150506001900390600052602060002090600402016000909190919091506000820151816000019080519060200190610651929190610912565b50602082015181600101908051906020019061066e929190610912565b50604082015181600201908051906020019061068b929190610912565b506060820151816003015550507fddd197767c7a2b1a3fa71853e3fd46419b663175947e8a97d59d69a40de9aeda816040516106c79190610f68565b60405180910390a150565b6106da610998565b6106e3826103ef565b610722576040517f08c379a00000000000000000000000000000000000000000000000000000000081526004016107199061122a565b60405180910390fd5b60018260405161073291906110c9565b908152602001604051809103902060405180608001604052908160008201805461075b90610fb9565b80601f016020809104026020016040519081016040528092919081815260200182805461078790610fb9565b80156107d45780601f106107a9576101008083540402835291602001916107d4565b820191906000526020600020905b8154815290600101906020018083116107b757829003601f168201915b505050505081526020016001820180546107ed90610fb9565b80601f016020809104026020016040519081016040528092919081815260200182805461081990610fb9565b80156108665780601f1061083b57610100808354040283529160200191610866565b820191906000526020600020905b81548152906001019060200180831161084957829003601f168201915b5050505050815260200160028201805461087f90610fb9565b80601f01602080910402602001604051908101604052809291908181526020018280546108ab90610fb9565b80156108f85780601f106108cd576101008083540402835291602001916108f8565b820191906000526020600020905b8154815290600101906020018083116108db57829003601f168201915b505050505081526020016003820154815250509050919050565b82805461091e90610fb9565b90600052602060002090601f0160209004810192826109405760008555610987565b82601f1061095957805160ff1916838001178555610987565b82800160010185558215610987579182015b8281111561098657825182559160200191906001019061096b565b5b50905061099491906109c0565b5090565b6040518060800160405280606081526020016060815260200160608152602001600081525090565b5b808211156109d95760008160009055506001016109c1565b5090565b600081519050919050565b600082825260208201905092915050565b6000819050602082019050919050565b600081519050919050565b600082825260208201905092915050565b60005b83811015610a43578082015181840152602081019050610a28565b83811115610a52576000848401525b50505050565b6000601f19601f8301169050919050565b6000610a7482610a09565b610a7e8185610a14565b9350610a8e818560208601610a25565b610a9781610a58565b840191505092915050565b6000819050919050565b610ab581610aa2565b82525050565b60006080830160008301518482036000860152610ad88282610a69565b91505060208301518482036020860152610af28282610a69565b91505060408301518482036040860152610b0c8282610a69565b9150506060830151610b216060860182610aac565b508091505092915050565b6000610b388383610abb565b905092915050565b6000602082019050919050565b6000610b58826109dd565b610b6281856109e8565b935083602082028501610b74856109f9565b8060005b85811015610bb05784840389528151610b918582610b2c565b9450610b9c83610b40565b925060208a01995050600181019050610b78565b50829750879550505050505092915050565b60006020820190508181036000830152610bdc8184610b4d565b905092915050565b6000604051905090565b600080fd5b600080fd5b600080fd5b600080fd5b7f4e487b7100000000000000000000000000000000000000000000000000000000600052604160045260246000fd5b610c3a82610a58565b810181811067ffffffffffffffff82111715610c5957610c58610c02565b5b80604052505050565b6000610c6c610be4565b9050610c788282610c31565b919050565b600067ffffffffffffffff821115610c9857610c97610c02565b5b610ca182610a58565b9050602081019050919050565b82818337600083830152505050565b6000610cd0610ccb84610c7d565b610c62565b905082815260208101848484011115610cec57610ceb610bfd565b5b610cf7848285610cae565b509392505050565b600082601f830112610d1457610d13610bf8565b5b8135610d24848260208601610cbd565b91505092915050565b600060208284031215610d4357610d42610bee565b5b600082013567ffffffffffffffff811115610d6157610d60610bf3565b5b610d6d84828501610cff565b91505092915050565b60008115159050919050565b610d8b81610d76565b82525050565b6000602082019050610da66000830184610d82565b92915050565b600080fd5b600080fd5b610dbf81610aa2565b8114610dca57600080fd5b50565b600081359050610ddc81610db6565b92915050565b600060808284031215610df857610df7610dac565b5b610e026080610c62565b9050600082013567ffffffffffffffff811115610e2257610e21610db1565b5b610e2e84828501610cff565b600083015250602082013567ffffffffffffffff811115610e5257610e51610db1565b5b610e5e84828501610cff565b602083015250604082013567ffffffffffffffff811115610e8257610e81610db1565b5b610e8e84828501610cff565b6040830152506060610ea284828501610dcd565b60608301525092915050565b600060208284031215610ec457610ec3610bee565b5b600082013567ffffffffffffffff811115610ee257610ee1610bf3565b5b610eee84828501610de2565b91505092915050565b60006080830160008301518482036000860152610f148282610a69565b91505060208301518482036020860152610f2e8282610a69565b91505060408301518482036040860152610f488282610a69565b9150506060830151610f5d6060860182610aac565b508091505092915050565b60006020820190508181036000830152610f828184610ef7565b905092915050565b7f4e487b7100000000000000000000000000000000000000000000000000000000600052602260045260246000fd5b60006002820490506001821680610fd157607f821691505b602082108103610fe457610fe3610f8a565b5b50919050565b600082825260208201905092915050565b7f4163636573732044656e6965642c206f6e6c79206f776e65722063616e20616360008201527f636573732074686973207265736f757263650000000000000000000000000000602082015250565b6000611057603283610fea565b915061106282610ffb565b604082019050919050565b600060208201905081810360008301526110868161104a565b9050919050565b600081905092915050565b60006110a382610a09565b6110ad818561108d565b93506110bd818560208601610a25565b80840191505092915050565b60006110d58284611098565b915081905092915050565b7f466c6967687420616c7265616479207265676973746572656400000000000000600082015250565b6000611116601983610fea565b9150611121826110e0565b602082019050919050565b6000602082019050818103600083015261114581611109565b9050919050565b7f41206c6f77657220707269636520636f756c64206861636b2074686520636f6e60008201527f7472616374000000000000000000000000000000000000000000000000000000602082015250565b60006111a8602583610fea565b91506111b38261114c565b604082019050919050565b600060208201905081810360008301526111d78161119b565b9050919050565b7f466c69676874206e6f7420617661696c61626c65000000000000000000000000600082015250565b6000611214601483610fea565b915061121f826111de565b602082019050919050565b6000602082019050818103600083015261124381611207565b905091905056fea2646970667358221220b1890094b781d35d4abe63d121314cb9fbd7f7516da53e9397616aa612f0dfaa64736f6c634300080d0033",
  "immutableReferences": {},
  "source": "// SPDX-License-Identifier: MIT\r\npragma solidity >=0.4.22 <0.9.0;\r\nimport \"./Owner.sol\";\r\nimport \"../models/FlightModel.sol\";\r\n\r\ncontract Flights is Owner {\r\n    mapping(string => Flight) private flights;\r\n    mapping(string => bool) private availableFlights;\r\n    Flight[] private availableFlightsList;\r\n\r\n    event FlightAdded(Flight flight);\r\n\r\n    constructor() {\r\n        Flight[6] memory seedFlights = [\r\n            Flight({ number: \"CD123\", origin:\"MAD\", destination:\"VAR\", price: 5}),\r\n            Flight({ number: \"CD456\", origin:\"HAV\", destination:\"MIA\", price: 2}),\r\n            Flight({ number: \"CD768\", origin:\"TOK\", destination:\"AMS\", price: 6}),\r\n            Flight({ number: \"UX768\", origin:\"MAD\", destination:\"AGP\", price: 2}),\r\n            Flight({ number: \"DX768\", origin:\"MAD\", destination:\"CUN\", price: 4}),\r\n            Flight({ number: \"DX769\", origin:\"PAR\", destination:\"LON\", price: 2})\r\n        ];\r\n\r\n        for (uint256 i = 0; i < seedFlights.length; i++) {\r\n            addFlight(seedFlights[i]);\r\n        }\r\n    }\r\n\r\n    function addFlight(Flight memory flight) public onlyOwner() {\r\n        require(!isFlightAvailiable(flight.number), \"Flight already registered\");\r\n        require(flight.price >= 1, \"A lower price could hack the contract\");\r\n        availableFlights[flight.number] = true;\r\n        flights[flight.number] = flight;\r\n        availableFlightsList.push(flight);\r\n        emit FlightAdded(flight);\r\n    }\r\n\r\n    function isFlightAvailiable(string memory number) public view returns(bool) {\r\n        return availableFlights[number];\r\n    }\r\n\r\n    function getAvailableFlights() external view returns(Flight[] memory) {\r\n        return availableFlightsList;\r\n    }\r\n\r\n    function getFlight(string memory flightNumber) external view returns(Flight memory) {\r\n        require(isFlightAvailiable(flightNumber), \"Flight not available\");\r\n        return flights[flightNumber]; \r\n    }\r\n}",
  "sourcePath": "C:\\Users\\WilliamVzquez\\Documents\\sol-web3-course\\the-airline\\contracts\\Flights.sol",
  "compiler": {
    "name": "solc",
    "version": "0.8.13+commit.abaa5c0e.Emscripten.clang"
  },
  "schemaVersion": "3.4.7",
  "updatedAt": "2022-06-13T11:38:13.674Z",
  "devdoc": {
    "kind": "dev",
    "methods": {},
    "version": 1
  },
  "userdoc": {
    "kind": "user",
    "methods": {},
    "version": 1
  }
}