{
  "contractName": "Owner",
  "abi": [
    {
      "inputs": [],
      "stateMutability": "nonpayable",
      "type": "constructor"
    },
    {
      "inputs": [],
      "name": "changeOwner",
      "outputs": [],
      "stateMutability": "nonpayable",
      "type": "function"
    },
    {
      "inputs": [],
      "name": "amIOwner",
      "outputs": [
        {
          "internalType": "bool",
          "name": "",
          "type": "bool"
        }
      ],
      "stateMutability": "view",
      "type": "function"
    }
  ],
  "bytecode": "0x608060405234801561001057600080fd5b50336000806101000a81548173ffffffffffffffffffffffffffffffffffffffff021916908373ffffffffffffffffffffffffffffffffffffffff1602179055506102d9806100606000396000f3fe608060405234801561001057600080fd5b50600436106100365760003560e01c80634e4ab8301461003b57806362a0947714610059575b600080fd5b610043610063565b60405161005091906101e5565b60405180910390f35b6100616100fa565b005b60003373ffffffffffffffffffffffffffffffffffffffff1660008054906101000a900473ffffffffffffffffffffffffffffffffffffffff1673ffffffffffffffffffffffffffffffffffffffff16146100f3576040517f08c379a00000000000000000000000000000000000000000000000000000000081526004016100ea90610283565b60405180910390fd5b6001905090565b3373ffffffffffffffffffffffffffffffffffffffff1660008054906101000a900473ffffffffffffffffffffffffffffffffffffffff1673ffffffffffffffffffffffffffffffffffffffff1614610188576040517f08c379a000000000000000000000000000000000000000000000000000000000815260040161017f90610283565b60405180910390fd5b336000806101000a81548173ffffffffffffffffffffffffffffffffffffffff021916908373ffffffffffffffffffffffffffffffffffffffff160217905550565b60008115159050919050565b6101df816101ca565b82525050565b60006020820190506101fa60008301846101d6565b92915050565b600082825260208201905092915050565b7f4163636573732044656e6965642c206f6e6c79206f776e65722063616e20616360008201527f636573732074686973207265736f757263650000000000000000000000000000602082015250565b600061026d603283610200565b915061027882610211565b604082019050919050565b6000602082019050818103600083015261029c81610260565b905091905056fea2646970667358221220b9ce3e3a750eccda42d74adb4fcbce1057f97e3603ccc43c0d1780ab615df66464736f6c634300080d0033",
  "immutableReferences": {},
  "source": "// SPDX-License-Identifier: MIT\r\npragma solidity >=0.4.22 <0.9.0;\r\n\r\ncontract Owner {\r\n    address owner;\r\n\r\n    constructor() {\r\n        owner = msg.sender;\r\n    }\r\n\r\n    modifier onlyOwner() {\r\n        require(owner == msg.sender, \"Access Denied, only owner can access this resource\");\r\n        _;\r\n    }\r\n\r\n    function changeOwner() external onlyOwner() {\r\n        owner = msg.sender;\r\n    }\r\n\r\n    function amIOwner() external view onlyOwner() returns(bool) {\r\n        return true;\r\n    }\r\n}",
  "sourcePath": "C:\\Users\\WilliamVázquez\\Documents\\sol-web3-course\\the-airline\\contracts\\Owner.sol",
  "compiler": {
    "name": "solc",
    "version": "0.8.13+commit.abaa5c0e.Emscripten.clang"
  },
  "schemaVersion": "3.4.7",
  "updatedAt": "2022-06-27T11:25:26.070Z",
  "devdoc": {
    "kind": "dev",
    "methods": {},
    "version": 1
  },
  "userdoc": {
    "kind": "user",
    "methods": {},
    "version": 1
  }
}